{
  "_format": "hh-sol-artifact-1",
  "contractName": "DomainService",
  "sourceName": "contracts/DomainService.sol",
  "abi": [
    {
      "inputs": [
        {
          "internalType": "string",
          "name": "_tld",
          "type": "string"
        }
      ],
      "stateMutability": "payable",
      "type": "constructor"
    },
    {
      "inputs": [],
      "name": "AlreadyRegistered",
      "type": "error"
    },
    {
      "inputs": [
        {
          "internalType": "string",
          "name": "name",
          "type": "string"
        }
      ],
      "name": "InvalidName",
      "type": "error"
    },
    {
      "inputs": [],
      "name": "Unauthorized",
      "type": "error"
    },
    {
      "anonymous": false,
      "inputs": [
        {
          "indexed": true,
          "internalType": "address",
          "name": "owner",
          "type": "address"
        },
        {
          "indexed": true,
          "internalType": "address",
          "name": "approved",
          "type": "address"
        },
        {
          "indexed": true,
          "internalType": "uint256",
          "name": "tokenId",
          "type": "uint256"
        }
      ],
      "name": "Approval",
      "type": "event"
    },
    {
      "anonymous": false,
      "inputs": [
        {
          "indexed": true,
          "internalType": "address",
          "name": "owner",
          "type": "address"
        },
        {
          "indexed": true,
          "internalType": "address",
          "name": "operator",
          "type": "address"
        },
        {
          "indexed": false,
          "internalType": "bool",
          "name": "approved",
          "type": "bool"
        }
      ],
      "name": "ApprovalForAll",
      "type": "event"
    },
    {
      "anonymous": false,
      "inputs": [
        {
          "indexed": true,
          "internalType": "address",
          "name": "from",
          "type": "address"
        },
        {
          "indexed": true,
          "internalType": "address",
          "name": "to",
          "type": "address"
        },
        {
          "indexed": true,
          "internalType": "uint256",
          "name": "tokenId",
          "type": "uint256"
        }
      ],
      "name": "Transfer",
      "type": "event"
    },
    {
      "inputs": [
        {
          "internalType": "address",
          "name": "to",
          "type": "address"
        },
        {
          "internalType": "uint256",
          "name": "tokenId",
          "type": "uint256"
        }
      ],
      "name": "approve",
      "outputs": [],
      "stateMutability": "nonpayable",
      "type": "function"
    },
    {
      "inputs": [
        {
          "internalType": "address",
          "name": "owner",
          "type": "address"
        }
      ],
      "name": "balanceOf",
      "outputs": [
        {
          "internalType": "uint256",
          "name": "",
          "type": "uint256"
        }
      ],
      "stateMutability": "view",
      "type": "function"
    },
    {
      "inputs": [
        {
          "internalType": "string",
          "name": "",
          "type": "string"
        }
      ],
      "name": "domains",
      "outputs": [
        {
          "internalType": "address",
          "name": "",
          "type": "address"
        }
      ],
      "stateMutability": "view",
      "type": "function"
    },
    {
      "inputs": [
        {
          "internalType": "string",
          "name": "name",
          "type": "string"
        }
      ],
      "name": "getAddress",
      "outputs": [
        {
          "internalType": "address",
          "name": "",
          "type": "address"
        }
      ],
      "stateMutability": "view",
      "type": "function"
    },
    {
      "inputs": [],
      "name": "getAllNames",
      "outputs": [
        {
          "internalType": "string[]",
          "name": "",
          "type": "string[]"
        }
      ],
      "stateMutability": "view",
      "type": "function"
    },
    {
      "inputs": [
        {
          "internalType": "uint256",
          "name": "tokenId",
          "type": "uint256"
        }
      ],
      "name": "getApproved",
      "outputs": [
        {
          "internalType": "address",
          "name": "",
          "type": "address"
        }
      ],
      "stateMutability": "view",
      "type": "function"
    },
    {
      "inputs": [
        {
          "internalType": "string",
          "name": "name",
          "type": "string"
        }
      ],
      "name": "getRecord",
      "outputs": [
        {
          "internalType": "string",
          "name": "",
          "type": "string"
        }
      ],
      "stateMutability": "view",
      "type": "function"
    },
    {
      "inputs": [
        {
          "internalType": "address",
          "name": "owner",
          "type": "address"
        },
        {
          "internalType": "address",
          "name": "operator",
          "type": "address"
        }
      ],
      "name": "isApprovedForAll",
      "outputs": [
        {
          "internalType": "bool",
          "name": "",
          "type": "bool"
        }
      ],
      "stateMutability": "view",
      "type": "function"
    },
    {
      "inputs": [],
      "name": "name",
      "outputs": [
        {
          "internalType": "string",
          "name": "",
          "type": "string"
        }
      ],
      "stateMutability": "view",
      "type": "function"
    },
    {
      "inputs": [
        {
          "internalType": "uint256",
          "name": "",
          "type": "uint256"
        }
      ],
      "name": "names",
      "outputs": [
        {
          "internalType": "string",
          "name": "",
          "type": "string"
        }
      ],
      "stateMutability": "view",
      "type": "function"
    },
    {
      "inputs": [],
      "name": "owner",
      "outputs": [
        {
          "internalType": "address",
          "name": "",
          "type": "address"
        }
      ],
      "stateMutability": "view",
      "type": "function"
    },
    {
      "inputs": [
        {
          "internalType": "uint256",
          "name": "tokenId",
          "type": "uint256"
        }
      ],
      "name": "ownerOf",
      "outputs": [
        {
          "internalType": "address",
          "name": "",
          "type": "address"
        }
      ],
      "stateMutability": "view",
      "type": "function"
    },
    {
      "inputs": [
        {
          "internalType": "string",
          "name": "name",
          "type": "string"
        }
      ],
      "name": "price",
      "outputs": [
        {
          "internalType": "uint256",
          "name": "",
          "type": "uint256"
        }
      ],
      "stateMutability": "pure",
      "type": "function"
    },
    {
      "inputs": [
        {
          "internalType": "string",
          "name": "",
          "type": "string"
        }
      ],
      "name": "records",
      "outputs": [
        {
          "internalType": "string",
          "name": "",
          "type": "string"
        }
      ],
      "stateMutability": "view",
      "type": "function"
    },
    {
      "inputs": [
        {
          "internalType": "string",
          "name": "name",
          "type": "string"
        }
      ],
      "name": "register",
      "outputs": [],
      "stateMutability": "payable",
      "type": "function"
    },
    {
      "inputs": [
        {
          "internalType": "address",
          "name": "from",
          "type": "address"
        },
        {
          "internalType": "address",
          "name": "to",
          "type": "address"
        },
        {
          "internalType": "uint256",
          "name": "tokenId",
          "type": "uint256"
        }
      ],
      "name": "safeTransferFrom",
      "outputs": [],
      "stateMutability": "nonpayable",
      "type": "function"
    },
    {
      "inputs": [
        {
          "internalType": "address",
          "name": "from",
          "type": "address"
        },
        {
          "internalType": "address",
          "name": "to",
          "type": "address"
        },
        {
          "internalType": "uint256",
          "name": "tokenId",
          "type": "uint256"
        },
        {
          "internalType": "bytes",
          "name": "_data",
          "type": "bytes"
        }
      ],
      "name": "safeTransferFrom",
      "outputs": [],
      "stateMutability": "nonpayable",
      "type": "function"
    },
    {
      "inputs": [
        {
          "internalType": "address",
          "name": "operator",
          "type": "address"
        },
        {
          "internalType": "bool",
          "name": "approved",
          "type": "bool"
        }
      ],
      "name": "setApprovalForAll",
      "outputs": [],
      "stateMutability": "nonpayable",
      "type": "function"
    },
    {
      "inputs": [
        {
          "internalType": "string",
          "name": "name",
          "type": "string"
        },
        {
          "internalType": "string",
          "name": "record",
          "type": "string"
        }
      ],
      "name": "setRecord",
      "outputs": [],
      "stateMutability": "nonpayable",
      "type": "function"
    },
    {
      "inputs": [
        {
          "internalType": "bytes4",
          "name": "interfaceId",
          "type": "bytes4"
        }
      ],
      "name": "supportsInterface",
      "outputs": [
        {
          "internalType": "bool",
          "name": "",
          "type": "bool"
        }
      ],
      "stateMutability": "view",
      "type": "function"
    },
    {
      "inputs": [],
      "name": "symbol",
      "outputs": [
        {
          "internalType": "string",
          "name": "",
          "type": "string"
        }
      ],
      "stateMutability": "view",
      "type": "function"
    },
    {
      "inputs": [],
      "name": "tld",
      "outputs": [
        {
          "internalType": "string",
          "name": "",
          "type": "string"
        }
      ],
      "stateMutability": "view",
      "type": "function"
    },
    {
      "inputs": [
        {
          "internalType": "uint256",
          "name": "tokenId",
          "type": "uint256"
        }
      ],
      "name": "tokenURI",
      "outputs": [
        {
          "internalType": "string",
          "name": "",
          "type": "string"
        }
      ],
      "stateMutability": "view",
      "type": "function"
    },
    {
      "inputs": [
        {
          "internalType": "address",
          "name": "from",
          "type": "address"
        },
        {
          "internalType": "address",
          "name": "to",
          "type": "address"
        },
        {
          "internalType": "uint256",
          "name": "tokenId",
          "type": "uint256"
        }
      ],
      "name": "transferFrom",
      "outputs": [],
      "stateMutability": "nonpayable",
      "type": "function"
    },
    {
      "inputs": [
        {
          "internalType": "string",
          "name": "name",
          "type": "string"
        }
      ],
      "name": "valid",
      "outputs": [
        {
          "internalType": "bool",
          "name": "",
          "type": "bool"
        }
      ],
      "stateMutability": "pure",
      "type": "function"
    },
    {
      "inputs": [],
      "name": "withdraw",
      "outputs": [],
      "stateMutability": "nonpayable",
      "type": "function"
    }
  ],
  "bytecode": "0x6080604052604051806108a0016040528061086b81526020016200556f61086b9139600a9080519060200190620000389291906200035a565b506040518060400160405280600d81526020017f3c2f746578743e3c2f7376673e00000000000000000000000000000000000000815250600b9080519060200190620000869291906200035a565b5060405162005dda38038062005dda8339818101604052810190620000ac9190620005a7565b6040518060400160405280601281526020017f4d41544943204e616d65205365727669636500000000000000000000000000008152506040518060400160405280600381526020017f4d4e5300000000000000000000000000000000000000000000000000000000008152508160009080519060200190620001309291906200035a565b508060019080519060200190620001499291906200035a565b50505033600860006101000a81548173ffffffffffffffffffffffffffffffffffffffff021916908373ffffffffffffffffffffffffffffffffffffffff1602179055508060099080519060200190620001a59291906200035a565b50620002846040518060400160405280601881526020017f2573206e616d652073657276696365206465706c6f796564000000000000000081525060098054620001ef9062000627565b80601f01602080910402602001604051908101604052809291908181526020018280546200021d9062000627565b80156200026e5780601f1062000242576101008083540402835291602001916200026e565b820191906000526020600020905b8154815290600101906020018083116200025057829003601f168201915b50505050506200028b60201b62001c4d1760201c565b50620006f5565b6200032d8282604051602401620002a4929190620006ba565b6040516020818303038152906040527f4b5c4277000000000000000000000000000000000000000000000000000000007bffffffffffffffffffffffffffffffffffffffffffffffffffffffff19166020820180517bffffffffffffffffffffffffffffffffffffffffffffffffffffffff83818316178352505050506200033160201b60201c565b5050565b60008151905060006a636f6e736f6c652e6c6f679050602083016000808483855afa5050505050565b828054620003689062000627565b90600052602060002090601f0160209004810192826200038c5760008555620003d8565b82601f10620003a757805160ff1916838001178555620003d8565b82800160010185558215620003d8579182015b82811115620003d7578251825591602001919060010190620003ba565b5b509050620003e79190620003eb565b5090565b5b8082111562000406576000816000905550600101620003ec565b5090565b6000604051905090565b600080fd5b600080fd5b600080fd5b600080fd5b6000601f19601f8301169050919050565b7f4e487b7100000000000000000000000000000000000000000000000000000000600052604160045260246000fd5b620004738262000428565b810181811067ffffffffffffffff8211171562000495576200049462000439565b5b80604052505050565b6000620004aa6200040a565b9050620004b8828262000468565b919050565b600067ffffffffffffffff821115620004db57620004da62000439565b5b620004e68262000428565b9050602081019050919050565b60005b8381101562000513578082015181840152602081019050620004f6565b8381111562000523576000848401525b50505050565b6000620005406200053a84620004bd565b6200049e565b9050828152602081018484840111156200055f576200055e62000423565b5b6200056c848285620004f3565b509392505050565b600082601f8301126200058c576200058b6200041e565b5b81516200059e84826020860162000529565b91505092915050565b600060208284031215620005c057620005bf62000414565b5b600082015167ffffffffffffffff811115620005e157620005e062000419565b5b620005ef8482850162000574565b91505092915050565b7f4e487b7100000000000000000000000000000000000000000000000000000000600052602260045260246000fd5b600060028204905060018216806200064057607f821691505b60208210811415620006575762000656620005f8565b5b50919050565b600081519050919050565b600082825260208201905092915050565b600062000686826200065d565b62000692818562000668565b9350620006a4818560208601620004f3565b620006af8162000428565b840191505092915050565b60006040820190508181036000830152620006d6818562000679565b90508181036020830152620006ec818462000679565b90509392505050565b614e6a80620007056000396000f3fe6080604052600436106101815760003560e01c806370a08231116100d1578063bf40fac11161008a578063e985e9c511610064578063e985e9c5146105de578063f2c298be1461061b578063fb825e5f14610637578063fe2c61981461066257610181565b8063bf40fac11461053b578063c1880a9814610578578063c87b56dd146105a157610181565b806370a08231146104195780638da5cb5b1461045657806395d89b41146104815780639791c097146104ac578063a22cb465146104e9578063b88d4fde1461051257610181565b8063264492351161013e57806342842e0e1161011857806342842e0e146103395780634622ab0314610362578063541e771d1461039f5780636352211e146103dc57610181565b806326449235146102ba5780632d551432146102f75780633ccfd60b1461032257610181565b806301ffc9a71461018657806306fdde03146101c3578063081812fc146101ee578063095ea7b31461022b57806311dd88451461025457806323b872dd14610291575b600080fd5b34801561019257600080fd5b506101ad60048036038101906101a891906131ce565b61069f565b6040516101ba9190613216565b60405180910390f35b3480156101cf57600080fd5b506101d8610781565b6040516101e591906132ca565b60405180910390f35b3480156101fa57600080fd5b5061021560048036038101906102109190613322565b610813565b6040516102229190613390565b60405180910390f35b34801561023757600080fd5b50610252600480360381019061024d91906133d7565b610898565b005b34801561026057600080fd5b5061027b6004803603810190610276919061347c565b6109b0565b60405161028891906132ca565b60405180910390f35b34801561029d57600080fd5b506102b860048036038101906102b391906134c9565b610a63565b005b3480156102c657600080fd5b506102e160048036038101906102dc919061364c565b610ac3565b6040516102ee9190613390565b60405180910390f35b34801561030357600080fd5b5061030c610b0c565b60405161031991906132ca565b60405180910390f35b34801561032e57600080fd5b50610337610b9a565b005b34801561034557600080fd5b50610360600480360381019061035b91906134c9565b610cd6565b005b34801561036e57600080fd5b5061038960048036038101906103849190613322565b610cf6565b60405161039691906132ca565b60405180910390f35b3480156103ab57600080fd5b506103c660048036038101906103c1919061364c565b610d96565b6040516103d391906132ca565b60405180910390f35b3480156103e857600080fd5b5061040360048036038101906103fe9190613322565b610e4c565b6040516104109190613390565b60405180910390f35b34801561042557600080fd5b50610440600480360381019061043b9190613695565b610efe565b60405161044d91906136d1565b60405180910390f35b34801561046257600080fd5b5061046b610fb6565b6040516104789190613390565b60405180910390f35b34801561048d57600080fd5b50610496610fdc565b6040516104a391906132ca565b60405180910390f35b3480156104b857600080fd5b506104d360048036038101906104ce919061347c565b61106e565b6040516104e09190613216565b60405180910390f35b3480156104f557600080fd5b50610510600480360381019061050b9190613718565b611122565b005b34801561051e57600080fd5b50610539600480360381019061053491906137f9565b611138565b005b34801561054757600080fd5b50610562600480360381019061055d919061347c565b61119a565b60405161056f9190613390565b60405180910390f35b34801561058457600080fd5b5061059f600480360381019061059a919061387c565b6111e5565b005b3480156105ad57600080fd5b506105c860048036038101906105c39190613322565b6112c0565b6040516105d591906132ca565b60405180910390f35b3480156105ea57600080fd5b50610605600480360381019061060091906138fd565b611412565b6040516106129190613216565b60405180910390f35b6106356004803603810190610630919061347c565b6114a6565b005b34801561064357600080fd5b5061064c611993565b6040516106599190613a49565b60405180910390f35b34801561066e57600080fd5b506106896004803603810190610684919061347c565b611b71565b60405161069691906136d1565b60405180910390f35b60007f80ac58cd000000000000000000000000000000000000000000000000000000007bffffffffffffffffffffffffffffffffffffffffffffffffffffffff1916827bffffffffffffffffffffffffffffffffffffffffffffffffffffffff1916148061076a57507f5b5e139f000000000000000000000000000000000000000000000000000000007bffffffffffffffffffffffffffffffffffffffffffffffffffffffff1916827bffffffffffffffffffffffffffffffffffffffffffffffffffffffff1916145b8061077a575061077982611ce9565b5b9050919050565b60606000805461079090613a9a565b80601f01602080910402602001604051908101604052809291908181526020018280546107bc90613a9a565b80156108095780601f106107de57610100808354040283529160200191610809565b820191906000526020600020905b8154815290600101906020018083116107ec57829003601f168201915b5050505050905090565b600061081e82611d53565b61085d576040517f08c379a000000000000000000000000000000000000000000000000000000000815260040161085490613b3e565b60405180910390fd5b6004600083815260200190815260200160002060009054906101000a900473ffffffffffffffffffffffffffffffffffffffff169050919050565b60006108a382610e4c565b90508073ffffffffffffffffffffffffffffffffffffffff168373ffffffffffffffffffffffffffffffffffffffff161415610914576040517f08c379a000000000000000000000000000000000000000000000000000000000815260040161090b90613bd0565b60405180910390fd5b8073ffffffffffffffffffffffffffffffffffffffff16610933611dbf565b73ffffffffffffffffffffffffffffffffffffffff16148061096257506109618161095c611dbf565b611412565b5b6109a1576040517f08c379a000000000000000000000000000000000000000000000000000000000815260040161099890613c62565b60405180910390fd5b6109ab8383611dc7565b505050565b6060600d83836040516109c4929190613cb2565b908152602001604051809103902080546109dd90613a9a565b80601f0160208091040260200160405190810160405280929190818152602001828054610a0990613a9a565b8015610a565780601f10610a2b57610100808354040283529160200191610a56565b820191906000526020600020905b815481529060010190602001808311610a3957829003601f168201915b5050505050905092915050565b610a74610a6e611dbf565b82611e80565b610ab3576040517f08c379a0000000000000000000000000000000000000000000000000000000008152600401610aaa90613d3d565b60405180910390fd5b610abe838383611f5e565b505050565b600c818051602081018201805184825260208301602085012081835280955050505050506000915054906101000a900473ffffffffffffffffffffffffffffffffffffffff1681565b60098054610b1990613a9a565b80601f0160208091040260200160405190810160405280929190818152602001828054610b4590613a9a565b8015610b925780601f10610b6757610100808354040283529160200191610b92565b820191906000526020600020905b815481529060010190602001808311610b7557829003601f168201915b505050505081565b600860009054906101000a900473ffffffffffffffffffffffffffffffffffffffff1673ffffffffffffffffffffffffffffffffffffffff163373ffffffffffffffffffffffffffffffffffffffff1614610c21576040517f82b4290000000000000000000000000000000000000000000000000000000000815260040160405180910390fd5b600047905060003373ffffffffffffffffffffffffffffffffffffffff1682604051610c4c90613d8e565b60006040518083038185875af1925050503d8060008114610c89576040519150601f19603f3d011682016040523d82523d6000602084013e610c8e565b606091505b5050905080610cd2576040517f08c379a0000000000000000000000000000000000000000000000000000000008152600401610cc990613def565b60405180910390fd5b5050565b610cf183838360405180602001604052806000815250611138565b505050565b600e6020528060005260406000206000915090508054610d1590613a9a565b80601f0160208091040260200160405190810160405280929190818152602001828054610d4190613a9a565b8015610d8e5780601f10610d6357610100808354040283529160200191610d8e565b820191906000526020600020905b815481529060010190602001808311610d7157829003601f168201915b505050505081565b600d818051602081018201805184825260208301602085012081835280955050505050506000915090508054610dcb90613a9a565b80601f0160208091040260200160405190810160405280929190818152602001828054610df790613a9a565b8015610e445780601f10610e1957610100808354040283529160200191610e44565b820191906000526020600020905b815481529060010190602001808311610e2757829003601f168201915b505050505081565b6000806002600084815260200190815260200160002060009054906101000a900473ffffffffffffffffffffffffffffffffffffffff169050600073ffffffffffffffffffffffffffffffffffffffff168173ffffffffffffffffffffffffffffffffffffffff161415610ef5576040517f08c379a0000000000000000000000000000000000000000000000000000000008152600401610eec90613e81565b60405180910390fd5b80915050919050565b60008073ffffffffffffffffffffffffffffffffffffffff168273ffffffffffffffffffffffffffffffffffffffff161415610f6f576040517f08c379a0000000000000000000000000000000000000000000000000000000008152600401610f6690613f13565b60405180910390fd5b600360008373ffffffffffffffffffffffffffffffffffffffff1673ffffffffffffffffffffffffffffffffffffffff168152602001908152602001600020549050919050565b600860009054906101000a900473ffffffffffffffffffffffffffffffffffffffff1681565b606060018054610feb90613a9a565b80601f016020809104026020016040519081016040528092919081815260200182805461101790613a9a565b80156110645780601f1061103957610100808354040283529160200191611064565b820191906000526020600020905b81548152906001019060200180831161104757829003601f168201915b5050505050905090565b600060036110bf84848080601f016020809104026020016040519081016040528093929190818152602001838380828437600081840152601f19601f820116905080830192505050505050506121c5565b1015801561111a5750600a61111784848080601f016020809104026020016040519081016040528093929190818152602001838380828437600081840152601f19601f820116905080830192505050505050506121c5565b11155b905092915050565b61113461112d611dbf565b838361237a565b5050565b611149611143611dbf565b83611e80565b611188576040517f08c379a000000000000000000000000000000000000000000000000000000000815260040161117f90613d3d565b60405180910390fd5b611194848484846124e7565b50505050565b6000600c83836040516111ae929190613cb2565b908152602001604051809103902060009054906101000a900473ffffffffffffffffffffffffffffffffffffffff16905092915050565b600c84846040516111f7929190613cb2565b908152602001604051809103902060009054906101000a900473ffffffffffffffffffffffffffffffffffffffff1673ffffffffffffffffffffffffffffffffffffffff163373ffffffffffffffffffffffffffffffffffffffff161461128a576040517f82b4290000000000000000000000000000000000000000000000000000000000815260040160405180910390fd5b8181600d868660405161129e929190613cb2565b908152602001604051809103902091906112b9929190613039565b5050505050565b60606112cb82611d53565b61130a576040517f08c379a000000000000000000000000000000000000000000000000000000000815260040161130190613fa5565b60405180910390fd5b600060066000848152602001908152602001600020805461132a90613a9a565b80601f016020809104026020016040519081016040528092919081815260200182805461135690613a9a565b80156113a35780601f10611378576101008083540402835291602001916113a3565b820191906000526020600020905b81548152906001019060200180831161138657829003601f168201915b5050505050905060006113b4612543565b90506000815114156113ca57819250505061140d565b6000825111156113ff5780826040516020016113e7929190613ff6565b6040516020818303038152906040529250505061140d565b6114088461255a565b925050505b919050565b6000600560008473ffffffffffffffffffffffffffffffffffffffff1673ffffffffffffffffffffffffffffffffffffffff16815260200190815260200160002060008373ffffffffffffffffffffffffffffffffffffffff1673ffffffffffffffffffffffffffffffffffffffff16815260200190815260200160002060009054906101000a900460ff16905092915050565b600073ffffffffffffffffffffffffffffffffffffffff16600c83836040516114d0929190613cb2565b908152602001604051809103902060009054906101000a900473ffffffffffffffffffffffffffffffffffffffff1673ffffffffffffffffffffffffffffffffffffffff161461154c576040517f3a81d6fc00000000000000000000000000000000000000000000000000000000815260040160405180910390fd5b611556828261106e565b6115995781816040517f7f19f48d000000000000000000000000000000000000000000000000000000008152600401611590929190614047565b60405180910390fd5b60003073ffffffffffffffffffffffffffffffffffffffff1663fe2c619884846040518363ffffffff1660e01b81526004016115d6929190614047565b602060405180830381865afa1580156115f3573d6000803e3d6000fd5b505050506040513d601f19601f820116820180604052508101906116179190614080565b90508034101561165c576040517f08c379a0000000000000000000000000000000000000000000000000000000008152600401611653906140f9565b60405180910390fd5b600083836009604051602001611674939291906141f9565b60405160208183030381529060405290506000600a82600b60405160200161169e9392919061422a565b604051602081830303815290604052905060006116bb6007612601565b9050600061170c87878080601f016020809104026020016040519081016040528093929190818152602001838380828437600081840152601f19601f820116905080830192505050505050506121c5565b905060006117198261260f565b905061180d604051806060016040528060318152602001614dc46031913989898080601f016020809104026020016040519081016040528093929190818152602001838380828437600081840152601f19601f820116905080830192505050505050506009805461178990613a9a565b80601f01602080910402602001604051908101604052809291908181526020018280546117b590613a9a565b80156118025780601f106117d757610100808354040283529160200191611802565b820191906000526020600020905b8154815290600101906020018083116117e557829003601f168201915b505050505086612770565b60006118438661181c87612812565b8460405160200161182f939291906143d7565b604051602081830303815290604052612812565b90506000816040516020016118589190614480565b60405160208183030381529060405290506118a86040518060400160405280601281526020017f66696e616c20746f6b656e20757269202573000000000000000000000000000081525082611c4d565b6118b233866129aa565b6118bc85826129c8565b33600c8b8b6040516118cf929190613cb2565b908152602001604051809103902060006101000a81548173ffffffffffffffffffffffffffffffffffffffff021916908373ffffffffffffffffffffffffffffffffffffffff16021790555061195a6040518060400160405280601b81526020017f2573206861732072656769737465726564206120646f6d61696e21000000000081525033612a3c565b8989600e6000888152602001908152602001600020919061197c929190613039565b506119876007612ad8565b50505050505050505050565b60606119d36040518060400160405280601f81526020017f67657474696e6720616c6c206e616d65732066726f6d20636f6e747261637400815250612aee565b60006119df6007612601565b67ffffffffffffffff8111156119f8576119f7613521565b5b604051908082528060200260200182016040528015611a2b57816020015b6060815260200190600190039081611a165790505b50905060005b611a3b6007612601565b811015611b6957600e60008281526020019081526020016000208054611a6090613a9a565b80601f0160208091040260200160405190810160405280929190818152602001828054611a8c90613a9a565b8015611ad95780601f10611aae57610100808354040283529160200191611ad9565b820191906000526020600020905b815481529060010190602001808311611abc57829003601f168201915b5050505050828281518110611af157611af06144a2565b5b6020026020010181905250611b566040518060400160405280601781526020017f6e616d6520666f7220746f6b656e20256420697320257300000000000000000081525082848481518110611b4957611b486144a2565b5b6020026020010151612b87565b8080611b6190614500565b915050611a31565b508091505090565b600080611bc184848080601f016020809104026020016040519081016040528093929190818152602001838380828437600081840152601f19601f820116905080830192505050505050506121c5565b905060008111611c06576040517f08c379a0000000000000000000000000000000000000000000000000000000008152600401611bfd90614595565b60405180910390fd5b6003811415611c20576706f05b59d3b20000915050611c47565b6004811415611c3a57670429d069189e0000915050611c47565b67016345785d8a00009150505b92915050565b611ce58282604051602401611c639291906145b5565b6040516020818303038152906040527f4b5c4277000000000000000000000000000000000000000000000000000000007bffffffffffffffffffffffffffffffffffffffffffffffffffffffff19166020820180517bffffffffffffffffffffffffffffffffffffffffffffffffffffffff8381831617835250505050612c26565b5050565b60007f01ffc9a7000000000000000000000000000000000000000000000000000000007bffffffffffffffffffffffffffffffffffffffffffffffffffffffff1916827bffffffffffffffffffffffffffffffffffffffffffffffffffffffff1916149050919050565b60008073ffffffffffffffffffffffffffffffffffffffff166002600084815260200190815260200160002060009054906101000a900473ffffffffffffffffffffffffffffffffffffffff1673ffffffffffffffffffffffffffffffffffffffff1614159050919050565b600033905090565b816004600083815260200190815260200160002060006101000a81548173ffffffffffffffffffffffffffffffffffffffff021916908373ffffffffffffffffffffffffffffffffffffffff160217905550808273ffffffffffffffffffffffffffffffffffffffff16611e3a83610e4c565b73ffffffffffffffffffffffffffffffffffffffff167f8c5be1e5ebec7d5bd14f71427d1e84f3dd0314c0f7b2291e5b200ac8c7c3b92560405160405180910390a45050565b6000611e8b82611d53565b611eca576040517f08c379a0000000000000000000000000000000000000000000000000000000008152600401611ec19061465e565b60405180910390fd5b6000611ed583610e4c565b90508073ffffffffffffffffffffffffffffffffffffffff168473ffffffffffffffffffffffffffffffffffffffff161480611f4457508373ffffffffffffffffffffffffffffffffffffffff16611f2c84610813565b73ffffffffffffffffffffffffffffffffffffffff16145b80611f555750611f548185611412565b5b91505092915050565b8273ffffffffffffffffffffffffffffffffffffffff16611f7e82610e4c565b73ffffffffffffffffffffffffffffffffffffffff1614611fd4576040517f08c379a0000000000000000000000000000000000000000000000000000000008152600401611fcb906146f0565b60405180910390fd5b600073ffffffffffffffffffffffffffffffffffffffff168273ffffffffffffffffffffffffffffffffffffffff161415612044576040517f08c379a000000000000000000000000000000000000000000000000000000000815260040161203b90614782565b60405180910390fd5b61204f838383612c4f565b61205a600082611dc7565b6001600360008573ffffffffffffffffffffffffffffffffffffffff1673ffffffffffffffffffffffffffffffffffffffff16815260200190815260200160002060008282546120aa91906147a2565b925050819055506001600360008473ffffffffffffffffffffffffffffffffffffffff1673ffffffffffffffffffffffffffffffffffffffff168152602001908152602001600020600082825461210191906147d6565b92505081905550816002600083815260200190815260200160002060006101000a81548173ffffffffffffffffffffffffffffffffffffffff021916908373ffffffffffffffffffffffffffffffffffffffff160217905550808273ffffffffffffffffffffffffffffffffffffffff168473ffffffffffffffffffffffffffffffffffffffff167fddf252ad1be2c89b69c2b068fc378daa952ba7f163c4a11628f55a4df523b3ef60405160405180910390a46121c0838383612c54565b505050565b60008060008084519050600092505b8082101561236f5760008583815181106121f1576121f06144a2565b5b602001015160f81c60f81b9050608060f81b817effffffffffffffffffffffffffffffffffffffffffffffffffffffffffffff191610156122405760018361223991906147d6565b925061235b565b60e060f81b817effffffffffffffffffffffffffffffffffffffffffffffffffffffffffffff191610156122825760028361227b91906147d6565b925061235a565b60f060f81b817effffffffffffffffffffffffffffffffffffffffffffffffffffffffffffff191610156122c4576003836122bd91906147d6565b9250612359565b60f8801b817effffffffffffffffffffffffffffffffffffffffffffffffffffffffffffff19161015612305576004836122fe91906147d6565b9250612358565b60fc60f81b817effffffffffffffffffffffffffffffffffffffffffffffffffffffffffffff191610156123475760058361234091906147d6565b9250612357565b60068361235491906147d6565b92505b5b5b5b5b50828061236790614500565b9350506121d4565b829350505050919050565b8173ffffffffffffffffffffffffffffffffffffffff168373ffffffffffffffffffffffffffffffffffffffff1614156123e9576040517f08c379a00000000000000000000000000000000000000000000000000000000081526004016123e090614878565b60405180910390fd5b80600560008573ffffffffffffffffffffffffffffffffffffffff1673ffffffffffffffffffffffffffffffffffffffff16815260200190815260200160002060008473ffffffffffffffffffffffffffffffffffffffff1673ffffffffffffffffffffffffffffffffffffffff16815260200190815260200160002060006101000a81548160ff0219169083151502179055508173ffffffffffffffffffffffffffffffffffffffff168373ffffffffffffffffffffffffffffffffffffffff167f17307eab39ab6107e8899845ad3d59bd9653f200f220920489ca2b5937696c31836040516124da9190613216565b60405180910390a3505050565b6124f2848484611f5e565b6124fe84848484612c59565b61253d576040517f08c379a00000000000000000000000000000000000000000000000000000000081526004016125349061490a565b60405180910390fd5b50505050565b606060405180602001604052806000815250905090565b606061256582611d53565b6125a4576040517f08c379a000000000000000000000000000000000000000000000000000000000815260040161259b9061499c565b60405180910390fd5b60006125ae612543565b905060008151116125ce57604051806020016040528060008152506125f9565b806125d88461260f565b6040516020016125e9929190613ff6565b6040516020818303038152906040525b915050919050565b600081600001549050919050565b60606000821415612657576040518060400160405280600181526020017f3000000000000000000000000000000000000000000000000000000000000000815250905061276b565b600082905060005b6000821461268957808061267290614500565b915050600a8261268291906149eb565b915061265f565b60008167ffffffffffffffff8111156126a5576126a4613521565b5b6040519080825280601f01601f1916602001820160405280156126d75781602001600182028036833780820191505090505b5090505b60008514612764576001826126f091906147a2565b9150600a856126ff9190614a1c565b603061270b91906147d6565b60f81b818381518110612721576127206144a2565b5b60200101907effffffffffffffffffffffffffffffffffffffffffffffffffffffffffffff1916908160001a905350600a8561275d91906149eb565b94506126db565b8093505050505b919050565b61280c8484848460405160240161278a9493929190614a4d565b6040516020818303038152906040527f9fd009f5000000000000000000000000000000000000000000000000000000007bffffffffffffffffffffffffffffffffffffffffffffffffffffffff19166020820180517bffffffffffffffffffffffffffffffffffffffffffffffffffffffff8381831617835250505050612c26565b50505050565b6060600082519050600081141561283b57604051806020016040528060008152509150506129a5565b6000600360028361284c91906147d6565b61285691906149eb565b60046128629190614aa7565b9050600060208261287391906147d6565b67ffffffffffffffff81111561288c5761288b613521565b5b6040519080825280601f01601f1916602001820160405280156128be5781602001600182028036833780820191505090505b5090506000604051806060016040528060408152602001614df5604091399050600181016020830160005b868110156129625760038101905062ffffff818a015116603f8160121c168401518060081b905060ff603f83600c1c1686015116810190508060081b905060ff603f8360061c1686015116810190508060081b905060ff603f831686015116810190508060e01b905080845260048401935050506128e9565b50600386066001811461297c576002811461298c57612997565b613d3d60f01b6002830352612997565b603d60f81b60018303525b508484525050819450505050505b919050565b6129c4828260405180602001604052806000815250612de1565b5050565b6129d182611d53565b612a10576040517f08c379a0000000000000000000000000000000000000000000000000000000008152600401612a0790614b73565b60405180910390fd5b80600660008481526020019081526020016000209080519060200190612a379291906130bf565b505050565b612ad48282604051602401612a52929190614b93565b6040516020818303038152906040527f319af333000000000000000000000000000000000000000000000000000000007bffffffffffffffffffffffffffffffffffffffffffffffffffffffff19166020820180517bffffffffffffffffffffffffffffffffffffffffffffffffffffffff8381831617835250505050612c26565b5050565b6001816000016000828254019250508190555050565b612b8481604051602401612b0291906132ca565b6040516020818303038152906040527f41304fac000000000000000000000000000000000000000000000000000000007bffffffffffffffffffffffffffffffffffffffffffffffffffffffff19166020820180517bffffffffffffffffffffffffffffffffffffffffffffffffffffffff8381831617835250505050612c26565b50565b612c21838383604051602401612b9f93929190614bc3565b6040516020818303038152906040527fa3f5c739000000000000000000000000000000000000000000000000000000007bffffffffffffffffffffffffffffffffffffffffffffffffffffffff19166020820180517bffffffffffffffffffffffffffffffffffffffffffffffffffffffff8381831617835250505050612c26565b505050565b60008151905060006a636f6e736f6c652e6c6f679050602083016000808483855afa5050505050565b505050565b505050565b6000612c7a8473ffffffffffffffffffffffffffffffffffffffff16612e3c565b15612dd4578373ffffffffffffffffffffffffffffffffffffffff1663150b7a02612ca3611dbf565b8786866040518563ffffffff1660e01b8152600401612cc59493929190614c5d565b6020604051808303816000875af1925050508015612d0157506040513d601f19601f82011682018060405250810190612cfe9190614cbe565b60015b612d84573d8060008114612d31576040519150601f19603f3d011682016040523d82523d6000602084013e612d36565b606091505b50600081511415612d7c576040517f08c379a0000000000000000000000000000000000000000000000000000000008152600401612d739061490a565b60405180910390fd5b805181602001fd5b63150b7a0260e01b7bffffffffffffffffffffffffffffffffffffffffffffffffffffffff1916817bffffffffffffffffffffffffffffffffffffffffffffffffffffffff191614915050612dd9565b600190505b949350505050565b612deb8383612e5f565b612df86000848484612c59565b612e37576040517f08c379a0000000000000000000000000000000000000000000000000000000008152600401612e2e9061490a565b60405180910390fd5b505050565b6000808273ffffffffffffffffffffffffffffffffffffffff163b119050919050565b600073ffffffffffffffffffffffffffffffffffffffff168273ffffffffffffffffffffffffffffffffffffffff161415612ecf576040517f08c379a0000000000000000000000000000000000000000000000000000000008152600401612ec690614d37565b60405180910390fd5b612ed881611d53565b15612f18576040517f08c379a0000000000000000000000000000000000000000000000000000000008152600401612f0f90614da3565b60405180910390fd5b612f2460008383612c4f565b6001600360008473ffffffffffffffffffffffffffffffffffffffff1673ffffffffffffffffffffffffffffffffffffffff1681526020019081526020016000206000828254612f7491906147d6565b92505081905550816002600083815260200190815260200160002060006101000a81548173ffffffffffffffffffffffffffffffffffffffff021916908373ffffffffffffffffffffffffffffffffffffffff160217905550808273ffffffffffffffffffffffffffffffffffffffff16600073ffffffffffffffffffffffffffffffffffffffff167fddf252ad1be2c89b69c2b068fc378daa952ba7f163c4a11628f55a4df523b3ef60405160405180910390a461303560008383612c54565b5050565b82805461304590613a9a565b90600052602060002090601f01602090048101928261306757600085556130ae565b82601f1061308057803560ff19168380011785556130ae565b828001600101855582156130ae579182015b828111156130ad578235825591602001919060010190613092565b5b5090506130bb9190613145565b5090565b8280546130cb90613a9a565b90600052602060002090601f0160209004810192826130ed5760008555613134565b82601f1061310657805160ff1916838001178555613134565b82800160010185558215613134579182015b82811115613133578251825591602001919060010190613118565b5b5090506131419190613145565b5090565b5b8082111561315e576000816000905550600101613146565b5090565b6000604051905090565b600080fd5b600080fd5b60007fffffffff0000000000000000000000000000000000000000000000000000000082169050919050565b6131ab81613176565b81146131b657600080fd5b50565b6000813590506131c8816131a2565b92915050565b6000602082840312156131e4576131e361316c565b5b60006131f2848285016131b9565b91505092915050565b60008115159050919050565b613210816131fb565b82525050565b600060208201905061322b6000830184613207565b92915050565b600081519050919050565b600082825260208201905092915050565b60005b8381101561326b578082015181840152602081019050613250565b8381111561327a576000848401525b50505050565b6000601f19601f8301169050919050565b600061329c82613231565b6132a6818561323c565b93506132b681856020860161324d565b6132bf81613280565b840191505092915050565b600060208201905081810360008301526132e48184613291565b905092915050565b6000819050919050565b6132ff816132ec565b811461330a57600080fd5b50565b60008135905061331c816132f6565b92915050565b6000602082840312156133385761333761316c565b5b60006133468482850161330d565b91505092915050565b600073ffffffffffffffffffffffffffffffffffffffff82169050919050565b600061337a8261334f565b9050919050565b61338a8161336f565b82525050565b60006020820190506133a56000830184613381565b92915050565b6133b48161336f565b81146133bf57600080fd5b50565b6000813590506133d1816133ab565b92915050565b600080604083850312156133ee576133ed61316c565b5b60006133fc858286016133c2565b925050602061340d8582860161330d565b9150509250929050565b600080fd5b600080fd5b600080fd5b60008083601f84011261343c5761343b613417565b5b8235905067ffffffffffffffff8111156134595761345861341c565b5b60208301915083600182028301111561347557613474613421565b5b9250929050565b600080602083850312156134935761349261316c565b5b600083013567ffffffffffffffff8111156134b1576134b0613171565b5b6134bd85828601613426565b92509250509250929050565b6000806000606084860312156134e2576134e161316c565b5b60006134f0868287016133c2565b9350506020613501868287016133c2565b92505060406135128682870161330d565b9150509250925092565b600080fd5b7f4e487b7100000000000000000000000000000000000000000000000000000000600052604160045260246000fd5b61355982613280565b810181811067ffffffffffffffff8211171561357857613577613521565b5b80604052505050565b600061358b613162565b90506135978282613550565b919050565b600067ffffffffffffffff8211156135b7576135b6613521565b5b6135c082613280565b9050602081019050919050565b82818337600083830152505050565b60006135ef6135ea8461359c565b613581565b90508281526020810184848401111561360b5761360a61351c565b5b6136168482856135cd565b509392505050565b600082601f83011261363357613632613417565b5b81356136438482602086016135dc565b91505092915050565b6000602082840312156136625761366161316c565b5b600082013567ffffffffffffffff8111156136805761367f613171565b5b61368c8482850161361e565b91505092915050565b6000602082840312156136ab576136aa61316c565b5b60006136b9848285016133c2565b91505092915050565b6136cb816132ec565b82525050565b60006020820190506136e660008301846136c2565b92915050565b6136f5816131fb565b811461370057600080fd5b50565b600081359050613712816136ec565b92915050565b6000806040838503121561372f5761372e61316c565b5b600061373d858286016133c2565b925050602061374e85828601613703565b9150509250929050565b600067ffffffffffffffff82111561377357613772613521565b5b61377c82613280565b9050602081019050919050565b600061379c61379784613758565b613581565b9050828152602081018484840111156137b8576137b761351c565b5b6137c38482856135cd565b509392505050565b600082601f8301126137e0576137df613417565b5b81356137f0848260208601613789565b91505092915050565b600080600080608085870312156138135761381261316c565b5b6000613821878288016133c2565b9450506020613832878288016133c2565b93505060406138438782880161330d565b925050606085013567ffffffffffffffff81111561386457613863613171565b5b613870878288016137cb565b91505092959194509250565b600080600080604085870312156138965761389561316c565b5b600085013567ffffffffffffffff8111156138b4576138b3613171565b5b6138c087828801613426565b9450945050602085013567ffffffffffffffff8111156138e3576138e2613171565b5b6138ef87828801613426565b925092505092959194509250565b600080604083850312156139145761391361316c565b5b6000613922858286016133c2565b9250506020613933858286016133c2565b9150509250929050565b600081519050919050565b600082825260208201905092915050565b6000819050602082019050919050565b600082825260208201905092915050565b600061398582613231565b61398f8185613969565b935061399f81856020860161324d565b6139a881613280565b840191505092915050565b60006139bf838361397a565b905092915050565b6000602082019050919050565b60006139df8261393d565b6139e98185613948565b9350836020820285016139fb85613959565b8060005b85811015613a375784840389528151613a1885826139b3565b9450613a23836139c7565b925060208a019950506001810190506139ff565b50829750879550505050505092915050565b60006020820190508181036000830152613a6381846139d4565b905092915050565b7f4e487b7100000000000000000000000000000000000000000000000000000000600052602260045260246000fd5b60006002820490506001821680613ab257607f821691505b60208210811415613ac657613ac5613a6b565b5b50919050565b7f4552433732313a20617070726f76656420717565727920666f72206e6f6e657860008201527f697374656e7420746f6b656e0000000000000000000000000000000000000000602082015250565b6000613b28602c8361323c565b9150613b3382613acc565b604082019050919050565b60006020820190508181036000830152613b5781613b1b565b9050919050565b7f4552433732313a20617070726f76616c20746f2063757272656e74206f776e6560008201527f7200000000000000000000000000000000000000000000000000000000000000602082015250565b6000613bba60218361323c565b9150613bc582613b5e565b604082019050919050565b60006020820190508181036000830152613be981613bad565b9050919050565b7f4552433732313a20617070726f76652063616c6c6572206973206e6f74206f7760008201527f6e6572206e6f7220617070726f76656420666f7220616c6c0000000000000000602082015250565b6000613c4c60388361323c565b9150613c5782613bf0565b604082019050919050565b60006020820190508181036000830152613c7b81613c3f565b9050919050565b600081905092915050565b6000613c998385613c82565b9350613ca68385846135cd565b82840190509392505050565b6000613cbf828486613c8d565b91508190509392505050565b7f4552433732313a207472616e736665722063616c6c6572206973206e6f74206f60008201527f776e6572206e6f7220617070726f766564000000000000000000000000000000602082015250565b6000613d2760318361323c565b9150613d3282613ccb565b604082019050919050565b60006020820190508181036000830152613d5681613d1a565b9050919050565b600081905092915050565b50565b6000613d78600083613d5d565b9150613d8382613d68565b600082019050919050565b6000613d9982613d6b565b9150819050919050565b7f4661696c656420746f207769746864726177204d617469630000000000000000600082015250565b6000613dd960188361323c565b9150613de482613da3565b602082019050919050565b60006020820190508181036000830152613e0881613dcc565b9050919050565b7f4552433732313a206f776e657220717565727920666f72206e6f6e657869737460008201527f656e7420746f6b656e0000000000000000000000000000000000000000000000602082015250565b6000613e6b60298361323c565b9150613e7682613e0f565b604082019050919050565b60006020820190508181036000830152613e9a81613e5e565b9050919050565b7f4552433732313a2062616c616e636520717565727920666f7220746865207a6560008201527f726f206164647265737300000000000000000000000000000000000000000000602082015250565b6000613efd602a8361323c565b9150613f0882613ea1565b604082019050919050565b60006020820190508181036000830152613f2c81613ef0565b9050919050565b7f45524337323155524953746f726167653a2055524920717565727920666f722060008201527f6e6f6e6578697374656e7420746f6b656e000000000000000000000000000000602082015250565b6000613f8f60318361323c565b9150613f9a82613f33565b604082019050919050565b60006020820190508181036000830152613fbe81613f82565b9050919050565b6000613fd082613231565b613fda8185613c82565b9350613fea81856020860161324d565b80840191505092915050565b60006140028285613fc5565b915061400e8284613fc5565b91508190509392505050565b6000614026838561323c565b93506140338385846135cd565b61403c83613280565b840190509392505050565b6000602082019050818103600083015261406281848661401a565b90509392505050565b60008151905061407a816132f6565b92915050565b6000602082840312156140965761409561316c565b5b60006140a48482850161406b565b91505092915050565b7f4e6f7420656e6f756768204d4154494320706169642100000000000000000000600082015250565b60006140e360168361323c565b91506140ee826140ad565b602082019050919050565b60006020820190508181036000830152614112816140d6565b9050919050565b7f2e00000000000000000000000000000000000000000000000000000000000000600082015250565b600061414f600183613c82565b915061415a82614119565b600182019050919050565b60008190508160005260206000209050919050565b6000815461418781613a9a565b6141918186613c82565b945060018216600081146141ac57600181146141bd576141f0565b60ff198316865281860193506141f0565b6141c685614165565b60005b838110156141e8578154818901526001820191506020810190506141c9565b838801955050505b50505092915050565b6000614206828587613c8d565b915061421182614142565b915061421d828461417a565b9150819050949350505050565b6000614236828661417a565b91506142428285613fc5565b915061424e828461417a565b9150819050949350505050565b7f7b226e616d65223a202200000000000000000000000000000000000000000000600082015250565b6000614291600a83613c82565b915061429c8261425b565b600a82019050919050565b7f222c20226465736372697074696f6e223a20224120646f6d61696e206f6e207460008201527f6865204d61746963206e616d652073657276696365222c2022696d616765223a60208201527f2022646174613a696d6167652f7376672b786d6c3b6261736536342c20000000604082015250565b6000614329605d83613c82565b9150614334826142a7565b605d82019050919050565b7f222c20226c656e677468223a2200000000000000000000000000000000000000600082015250565b6000614375600d83613c82565b91506143808261433f565b600d82019050919050565b7f227d000000000000000000000000000000000000000000000000000000000000600082015250565b60006143c1600283613c82565b91506143cc8261438b565b600282019050919050565b60006143e282614284565b91506143ee8286613fc5565b91506143f98261431c565b91506144058285613fc5565b915061441082614368565b915061441c8284613fc5565b9150614427826143b4565b9150819050949350505050565b7f646174613a6170706c69636174696f6e2f6a736f6e3b6261736536342c000000600082015250565b600061446a601d83613c82565b915061447582614434565b601d82019050919050565b600061448b8261445d565b91506144978284613fc5565b915081905092915050565b7f4e487b7100000000000000000000000000000000000000000000000000000000600052603260045260246000fd5b7f4e487b7100000000000000000000000000000000000000000000000000000000600052601160045260246000fd5b600061450b826132ec565b91507fffffffffffffffffffffffffffffffffffffffffffffffffffffffffffffffff82141561453e5761453d6144d1565b5b600182019050919050565b7f446f6d61696e206e616d652063616e6e7420626520656d707479000000000000600082015250565b600061457f601a8361323c565b915061458a82614549565b602082019050919050565b600060208201905081810360008301526145ae81614572565b9050919050565b600060408201905081810360008301526145cf8185613291565b905081810360208301526145e38184613291565b90509392505050565b7f4552433732313a206f70657261746f7220717565727920666f72206e6f6e657860008201527f697374656e7420746f6b656e0000000000000000000000000000000000000000602082015250565b6000614648602c8361323c565b9150614653826145ec565b604082019050919050565b600060208201905081810360008301526146778161463b565b9050919050565b7f4552433732313a207472616e736665722066726f6d20696e636f72726563742060008201527f6f776e6572000000000000000000000000000000000000000000000000000000602082015250565b60006146da60258361323c565b91506146e58261467e565b604082019050919050565b60006020820190508181036000830152614709816146cd565b9050919050565b7f4552433732313a207472616e7366657220746f20746865207a65726f2061646460008201527f7265737300000000000000000000000000000000000000000000000000000000602082015250565b600061476c60248361323c565b915061477782614710565b604082019050919050565b6000602082019050818103600083015261479b8161475f565b9050919050565b60006147ad826132ec565b91506147b8836132ec565b9250828210156147cb576147ca6144d1565b5b828203905092915050565b60006147e1826132ec565b91506147ec836132ec565b9250827fffffffffffffffffffffffffffffffffffffffffffffffffffffffffffffffff03821115614821576148206144d1565b5b828201905092915050565b7f4552433732313a20617070726f766520746f2063616c6c657200000000000000600082015250565b600061486260198361323c565b915061486d8261482c565b602082019050919050565b6000602082019050818103600083015261489181614855565b9050919050565b7f4552433732313a207472616e7366657220746f206e6f6e20455243373231526560008201527f63656976657220696d706c656d656e7465720000000000000000000000000000602082015250565b60006148f460328361323c565b91506148ff82614898565b604082019050919050565b60006020820190508181036000830152614923816148e7565b9050919050565b7f4552433732314d657461646174613a2055524920717565727920666f72206e6f60008201527f6e6578697374656e7420746f6b656e0000000000000000000000000000000000602082015250565b6000614986602f8361323c565b91506149918261492a565b604082019050919050565b600060208201905081810360008301526149b581614979565b9050919050565b7f4e487b7100000000000000000000000000000000000000000000000000000000600052601260045260246000fd5b60006149f6826132ec565b9150614a01836132ec565b925082614a1157614a106149bc565b5b828204905092915050565b6000614a27826132ec565b9150614a32836132ec565b925082614a4257614a416149bc565b5b828206905092915050565b60006080820190508181036000830152614a678187613291565b90508181036020830152614a7b8186613291565b90508181036040830152614a8f8185613291565b9050614a9e60608301846136c2565b95945050505050565b6000614ab2826132ec565b9150614abd836132ec565b9250817fffffffffffffffffffffffffffffffffffffffffffffffffffffffffffffffff0483118215151615614af657614af56144d1565b5b828202905092915050565b7f45524337323155524953746f726167653a2055524920736574206f66206e6f6e60008201527f6578697374656e7420746f6b656e000000000000000000000000000000000000602082015250565b6000614b5d602e8361323c565b9150614b6882614b01565b604082019050919050565b60006020820190508181036000830152614b8c81614b50565b9050919050565b60006040820190508181036000830152614bad8185613291565b9050614bbc6020830184613381565b9392505050565b60006060820190508181036000830152614bdd8186613291565b9050614bec60208301856136c2565b8181036040830152614bfe8184613291565b9050949350505050565b600081519050919050565b600082825260208201905092915050565b6000614c2f82614c08565b614c398185614c13565b9350614c4981856020860161324d565b614c5281613280565b840191505092915050565b6000608082019050614c726000830187613381565b614c7f6020830186613381565b614c8c60408301856136c2565b8181036060830152614c9e8184614c24565b905095945050505050565b600081519050614cb8816131a2565b92915050565b600060208284031215614cd457614cd361316c565b5b6000614ce284828501614ca9565b91505092915050565b7f4552433732313a206d696e7420746f20746865207a65726f2061646472657373600082015250565b6000614d2160208361323c565b9150614d2c82614ceb565b602082019050919050565b60006020820190508181036000830152614d5081614d14565b9050919050565b7f4552433732313a20746f6b656e20616c7265616479206d696e74656400000000600082015250565b6000614d8d601c8361323c565b9150614d9882614d57565b602082019050919050565b60006020820190508181036000830152614dbc81614d80565b905091905056fe5265676973746572696e672025732e2573206f6e2074686520636f6e7472616374207769746820746f6b656e49442025644142434445464748494a4b4c4d4e4f505152535455565758595a6162636465666768696a6b6c6d6e6f707172737475767778797a303132333435363738392b2fa26469706673582212201318a84d73968a3e3c4bda1d120ce4c886e235246ba62c5beb053d6f592068ac64736f6c634300080a00333c73766720786d6c6e733d22687474703a2f2f7777772e77332e6f72672f323030302f737667222077696474683d2232373022206865696768743d22323730222066696c6c3d226e6f6e65223e3c706174682066696c6c3d2275726c282342292220643d224d302030683237307632373048307a222f3e3c646566733e3c66696c7465722069643d22412220636f6c6f722d696e746572706f6c6174696f6e2d66696c746572733d2273524742222066696c746572556e6974733d227573657253706163654f6e55736522206865696768743d22323730222077696474683d22323730223e3c666544726f70536861646f772064783d2230222064793d22312220737464446576696174696f6e3d22322220666c6f6f642d6f7061636974793d222e323235222077696474683d223230302522206865696768743d2232303025222f3e3c2f66696c7465723e3c2f646566733e3c7061746820643d224d37322e3836332034322e393439632d2e3636382d2e3338372d312e3432362d2e35392d322e3139372d2e3539732d312e3532392e3230342d322e3139372e35396c2d31302e30383120362e3033322d362e383520332e3933342d31302e30383120362e303332632d2e3636382e3338372d312e3432362e35392d322e3139372e3539732d312e3532392d2e3230342d322e3139372d2e35396c2d382e3031332d342e37323161342e353220342e35322030203020312d312e3538392d312e363136632d2e3338342d2e3636352d2e3539342d312e3431382d2e3630382d322e313837762d392e3331632d2e3031332d2e3737352e3138352d312e3533382e3537322d322e32303861342e323520342e323520302030203120312e3632352d312e3539356c372e3838342d342e3539632e3636382d2e33383720312e3432362d2e353920322e3139372d2e353973312e3532392e32303420322e3139372e35396c372e38383420342e353961342e353220342e353220302030203120312e35383920312e363136632e3338342e3636352e35393420312e3431382e36303820322e31383776362e3033326c362e38352d342e303635762d362e303332632e3031332d2e3737352d2e3138352d312e3533382d2e3537322d322e32303861342e323520342e32352030203020302d312e3632352d312e3539354c34312e3435362032342e3539632d2e3636382d2e3338372d312e3432362d2e35392d322e3139372d2e3539732d312e3532392e3230342d322e3139372e35396c2d31342e38363420382e36353561342e323520342e32352030203020302d312e36323520312e353935632d2e3338372e36372d2e35383520312e3433342d2e35373220322e3230387631372e343431632d2e3031332e3737352e31383520312e3533382e35373220322e32303861342e323520342e323520302030203020312e36323520312e3539356c31342e38363420382e363535632e3636382e33383720312e3432362e353920322e3139372e353973312e3532392d2e32303420322e3139372d2e35396c31302e3038312d352e39303120362e38352d342e3036352031302e3038312d352e393031632e3636382d2e33383720312e3432362d2e353920322e3139372d2e353973312e3532392e32303420322e3139372e35396c372e38383420342e353961342e353220342e353220302030203120312e35383920312e363136632e3338342e3636352e35393420312e3431382e36303820322e31383776392e333131632e3031332e3737352d2e31383520312e3533382d2e35373220322e32303861342e323520342e32352030203020312d312e36323520312e3539356c2d372e38383420342e373231632d2e3636382e3338372d312e3432362e35392d322e3139372e3539732d312e3532392d2e3230342d322e3139372d2e35396c2d372e3838342d342e353961342e353220342e35322030203020312d312e3538392d312e363136632d2e3338352d2e3636352d2e3539342d312e3431382d2e3630382d322e313837762d362e3033326c2d362e383520342e30363576362e303332632d2e3031332e3737352e31383520312e3533382e35373220322e32303861342e323520342e323520302030203020312e36323520312e3539356c31342e38363420382e363535632e3636382e33383720312e3432362e353920322e3139372e353973312e3532392d2e32303420322e3139372d2e35396c31342e3836342d382e363535632e3635372d2e33393420312e3230342d2e393520312e3538392d312e363136732e3539342d312e3431382e3630392d322e3138375635352e353338632e3031332d2e3737352d2e3138352d312e3533382d2e3537322d322e32303861342e323520342e32352030203020302d312e3632352d312e3539356c2d31342e3939332d382e3738367a222066696c6c3d2223666666222f3e3c646566733e3c6c696e6561724772616469656e742069643d2242222078313d2230222079313d2230222078323d22323730222079323d2232373022206772616469656e74556e6974733d227573657253706163654f6e557365223e3c73746f702073746f702d636f6c6f723d2223636235656565222f3e3c73746f70206f66667365743d2231222073746f702d636f6c6f723d2223306364376534222073746f702d6f7061636974793d222e3939222f3e3c2f6c696e6561724772616469656e743e3c2f646566733e3c7465787420783d2233322e352220793d223233312220666f6e742d73697a653d223237222066696c6c3d2223666666222066696c7465723d2275726c282341292220666f6e742d66616d696c793d22506c7573204a616b617274612053616e732c44656a6156752053616e732c4e6f746f20436f6c6f7220456d6f6a692c4170706c6520436f6c6f7220456d6f6a692c73616e732d73657269662220666f6e742d7765696768743d22626f6c64223e",
  "linkReferences": {},
  "deployedLinkReferences": {}
}